:100000000C9439040C9461040C9461040C94610404
:100010000C9461040C9461040C9461040C946104CC
:100020000C9461040C9461040C942C080C949E08AC
:100030000C9461040C9461040C9461040C946104AC
:100040000C9461040C94CC0D0C9461040C94610428
:100050000C9461040C9461040C9461040C94EF0CF6
:100060000C9461040C9461040C9461040C9461047C
:100070000C9461040C9461040C9461040C9461046C
:100080000C946A0E0C9461040C9461040C94610449
:100090000C9461040C9461040C9461040C9461044C
:1000A0000C9461040C9461040C946104F90AFC0A38
:1000B000EB0AEF0AF30A1D0B1D0B1D0B000B040BC3
:1000C000080B0E0B120B1D0B180B940B990B9E0BB0
:1000D000A80BB20BFC0BFC0BFC0BBC0BC60BD00B28
:1000E000DA0BE70BFC0BEF0B00000000003E5B4F50
:1000F0005B3E3E6B4F6B3E1C3E7C3E1C183C7E3C88
:10010000181C577D571C1C5E7F5E1C00183C180095
:10011000FFE7C3E7FF0018241800FFE7DBE7FF3025
:10012000483A060E2629792926407F050507407F93
:1001300005253F5A3CE73C5A7F3E1C1C08081C1C06
:100140003E7F14227F22145F5F005F5F06097F01FC
:100150007F006689956A606060606094A2FFA294E7
:1001600008047E040810207E201008082A1C0808B5
:100170001C2A08081E101010100C1E0C1E0C303803
:100180003E3830060E3E0E06000000000000005F04
:1001900000000007000700147F147F14242A7F2A20
:1001A00012231308646236495620500008070300E2
:1001B000001C2241000041221C002A1C7F1C2A082E
:1001C000083E080800807030000808080808000091
:1001D00060600020100804023E5149453E00427F05
:1001E000400072494949462141494D331814127F54
:1001F0001027454545393C4A4949314121110907F4
:100200003649494936464949291E00001400000074
:100210004034000000081422411414141414004146
:1002200022140802015909063E415D594E7C121103
:10023000127C7F494949363E414141227F4141413B
:100240003E7F494949417F090909013E41415173B6
:100250007F0808087F00417F41002040413F017F27
:10026000081422417F404040407F021C027F7F04EF
:1002700008107F3E4141413E7F090909063E415138
:10028000215E7F09192946264949493203017F0128
:10029000033F4040403F1F2040201F3F4038403F29
:1002A000631408146303047804036159494D43003F
:1002B0007F4141410204081020004141417F040276
:1002C000010204404040404000030708002054540D
:1002D00078407F28444438384444442838444428EB
:1002E0007F385454541800087E090218A4A49C783E
:1002F0007F0804047800447D40002040403D007F9A
:100300001028440000417F40007C047804787C0879
:100310000404783844444438FC182424181824244D
:1003200018FC7C08040408485454542404043F4432
:10033000243C4040207C1C2040201C3C4030403C61
:1003400044281028444C9090907C4464544C4400C1
:100350000836410000007700000041360800020125
:100360000204023C2623263C1EA1A161123A404011
:10037000207A38545455592155557941215454788F
:1003800041215554784020545579400C1E52721228
:1003900039555555593954545459395554545800B0
:1003A00000457C410002457D420001457C40F0292A
:1003B0002429F0F0282528F07C5455450020545479
:1003C0007C547C0A097F49324949493232484848BD
:1003D00032324A4848303A4141217A3A4240207804
:1003E000009DA0A07D39444444393D4040403D3CFF
:1003F00024FF2424487E4943662B2FFC2F2BFF0922
:1004000029F620C0887E0903205454794100004415
:100410007D413048484A32384040227A007A0A0A00
:10042000727D0D19317D2629292F28262929292673
:1004300030484D4020380808080808080808382FB8
:1004400010C8ACBA2F102834FA00007B0000081442
:100450002A142222142A14089500220095AA005575
:1004600000AAAA55AA55AA000000FF00101010FF0C
:1004700000141414FF001010FF00FF1010F010F013
:10048000141414FC001414F700FF0000FF00FF1404
:1004900014F404FC141417101F10101F101F141450
:1004A000141F00101010F0000000001F101010109A
:1004B0001F10101010F010000000FF10101010108E
:1004C00010101010FF10000000FF140000FF00FFCC
:1004D00000001F10170000FC04F414141710171468
:1004E00014F404F40000FF00F7141414141414148A
:1004F000F700F7141414171410101F101F141414FD
:10050000F4141010F010F000001F101F0000001F66
:1005100014000000FC140000F010F01010FF10FF99
:10052000141414FF141010101F00000000F010FF2E
:10053000FFFFFFFFF0F0F0F0F0FFFFFF0000000012
:1005400000FFFF0F0F0F0F0F38444438447C2A2A56
:100550003E147E02020606027E027E026355494177
:10056000633844443C04407E201E2006027E020282
:1005700099A5E7A5991C2A492A1C4C7201724C3096
:100580004A4D4D303048784830BC625A463D3E496D
:100590004949007E0101017E2A2A2A2A2A44445F11
:1005A000444440514A444040444A51400000FF0105
:1005B00003E080FF000008086B6B08361236243613
:1005C000060F090F06000018180000001010003078
:1005D00040FF0101001F01011E00191D1712003C00
:1005E0003C3C3C00000000000601150126013701DB
:1005F0004A015D01720188019F01B801D201EE013B
:100600000B022A024B026E029302BA02E4021003AA
:100610003F037003A403DC03170455049704DD04AF
:1006200027057505C80520067D06E0064907B807B9
:100630002D08A9082D09B9094D0AEA0A900B400CAA
:10064000FA0CC00D910E6F0F5A1053115B127213FA
:100650009A14D41520178018F519801B231DDE1E4F
:10066000B420A622B524E4263429A72B402E00313D
:10067000EA330037453ABC3D68414C456B49C84DAB
:1006800068524F57805C006210111213151617182C
:100690001A1C1D1F21232527292C2E3134373A3EC1
:1006A0004145494E52575C62686E757B838B939CC3
:1006B000A5AFB9C4D0DCE9F70000000200090F00C3
:1006C00000030401000C0000000000000000000016
:1006D00000000000000000080B00020202010009F7
:1006E000040000010202000005240010010524019D
:1006F00001010424020605240600010705810310F8
:10070000004009040100020A00000007050202403F
:1007100000000705830240000004030904120100E1
:1007200002EF020140412336800001010203014132
:10073000726475696E6F204C4C430041726475623F
:100740006F7900F0F89C8E8783878E9CF8F000000C
:10075000FEFF0303030303070EFCF80000FEFF0384
:1007600003030303070EFCF80000FFFF0000000076
:10077000000000FFFF0000FEFF8383838383C7EE3A
:100780007C380000F8FC0E07030303070EFCF8009A
:10079000003F7FE0C08080C0E07F3FFFFF0101019C
:1007A00001010101FFFF0000FFFF0C0C0C0C1C3EBF
:1007B00077E3C100007FFFC0C0C0C0C0E0703F1F32
:1007C00000001F3F70E0C0C0C0E0703F1F00007F0E
:1007D000FFC1C1C1C1C1E3773E1C00001F3F70E0F3
:1007E000C0C0C0E0703F1F000000000001FFFF011B
:1007F00000000000000000240027002A002D003027
:1008000000D5F08D14A1C881CFD9F1AF200014021A
:100810001302120215020702080204010C0106016C
:1008200000040802011040804010204080408008F1
:10083000020401804020100201108010204040205E
:1008400000000000250028002B002E0031000404C9
:100850000404040304050202020204030202020269
:10086000060606060606040402020204040301004A
:100870007B1611241FBECFEFDAE0DEBFCDBF11E043
:10088000A0E0B1E0E0E1F4E302C005900D92A434F1
:10089000B107D9F726E0A4E4B1E001C01D92AA3562
:1008A000B207E1F714E0C9E3D4E004C02197FE01E8
:1008B0000E94B618C833D107C9F70E94F7120C94EA
:1008C000061A0C94000040917E0150917F01209106
:1008D0007C0130917D0142175307B4F49091E800F8
:1008E0009570E1F39091E80092FD19C08093F100BA
:1008F00080917E0190917F0101968F739927892BBA
:1009000019F48EEF8093E80080917E0190917F0131
:10091000019690937F0180937E0181E0089580E0AD
:100920000895CF92DF92EF92FF920F931F93CF9390
:10093000DF931F92CDB7DEB7182F062FE42E862F38
:10094000880F8E5F99830E94630483E00E94630492
:10095000F12EC12E9981D92E8C2D8F19801798F4E4
:10096000F601E7FE02C0849101C080810E94630409
:10097000182F80E00E9463048123FFEFCF1ADF0A63
:100980008111EACF01C081E00F90DF91CF911F91DB
:100990000F91FF90EF90DF90CF900895DF92EF924C
:1009A000FF920F931F93CF93DF93D82E8A017B0181
:1009B000E40EF51EEB01CE15DF0571F0D7FE03C086
:1009C000FE01849101C088810E94630421968111F7
:1009D000F2CF8FEF9FEF01C0C801DF91CF911F9140
:1009E0000F91FF90EF90DF9008952FB7F8948770E4
:1009F0008093E9009091E800892F807295FF04C0F0
:100A00009091F20080E4891B2FBF0895615030F06F
:100A10002091F100FC0120830196F8CF289884E60C
:100A200080934B060895CF92DF92EF92FF920F933F
:100A30001F93CF93DF936C017A018B01C0E0D0E06C
:100A4000CE15DF0589F0D8016D918D01D601ED91AC
:100A5000FC910190F081E02DC6010995892B11F4DC
:100A60007E0102C02196ECCFC701DF91CF911F918B
:100A70000F91FF90EF90DF90CF90089580917401D7
:100A800081110DC082E08093700184E08093710138
:100A9000109273011092720181E08093740180E7DB
:100AA00091E008950F931F93CF93DF931F92CDB7DB
:100AB000DEB782E0898342E450E067ED76E080E8CB
:100AC0000E94CE040E943E05DC0112960D911C91FD
:100AD00013970115110569F0D801ED91FC91028081
:100AE000F381E02DBE016F5F7F4FC801099597FF2D
:100AF00007C089810F90DF91CF911F910F910895C9
:100B0000F80100851185E5CFCF93DF931F92CDB714
:100B1000DEB76983DC01ED91FC910280F381E02D69
:100B200041E050E0BE016F5F7F4F09950F90DF916C
:100B3000CF91089583E08093E9008091F2008823AB
:100B400019F08AE38093E800089583E00E94F50499
:100B500090E00895FC018485958597FD0BC09FB7B3
:100B6000F89482E08093E9008091F2009FBF90E0CA
:100B7000019608959FB7F89482E08093E9008091F0
:100B8000F2009FBF90E008953FB7F89480916C0108
:100B900090916D01A0916E01B0916F0126B5A89B57
:100BA00005C02F3F19F00196A11DB11D3FBFBA2FFF
:100BB000A92F982F8827820F911DA11DB11DBC015F
:100BC000CD0142E0660F771F881F991F4A95D1F724
:100BD00008952F923F924F925F926F927F928F92E1
:100BE0009F92AF92BF92CF92DF92EF92FF920F93BC
:100BF0001F93CF93DF9300D000D000D0CDB7DEB7E6
:100C00006A3091F4FC01E85EFB4F4081329720810D
:100C1000318158E0459F200D311D112431832083FF
:100C2000329711821082E4C06D3009F4E1C0FC01FA
:100C3000E85EFB4FD0803297608071801C017CEEB3
:100C4000271A7BEF370AD1012D913C910D2D10E031
:100C5000203831057CF0B6E0DB9E200D311D1124DB
:100C6000F10131832083FC01E75EFB4F408141119C
:100C700094C0BEC0F0E46F1671046CF7A90175E072
:100C8000D79E400D511D11241416150624F7A801F6
:100C900073E0440F551F7A95E1F7460D571D141662
:100CA0001506CCF6E5E06E9FD0011124BA83A98326
:100CB000490160E070E044244394512C6530710593
:100CC00041F0E981FA81E60FF71FE851FF4FE49107
:100CD00001C0E0E05301F8E04E2F4170C42E9C8229
:100CE0008B824B8148194D1508F048C0A501F42EA0
:100CF000B42FBA19BD15D8F5AB81BC81A038B105A8
:100D000098F54034510580F5AF2DA695A695A6958A
:100D1000EA2EF12CDA01A770BB27BE83AD83D70181
:100D2000B695BA2FAA27B795A795EB80FC80AE0D94
:100D3000BF1DA80FB91F72010D8002C0EE0CFF1C71
:100D40000A94E2F7FE82ED82CC2031F05496FC90BA
:100D50005497ED80EF2806C0ED80E0945496FC9007
:100D60005497EF205496EC924F5F5F4FC0CF4B816A
:100D70005C814F5F5F4F5C834B83B3CFE695F1504F
:100D8000A00EB11EF111A8CF6F5F7F4F800E911E94
:100D90006630710509F092CF5ECF6AEF6003A00163
:100DA000619F500D112440585F4F4217530704F5BF
:100DB000DC01ED91FC910190F081E02D6AE0269636
:100DC0000FB6F894DEBF0FBECDBFDF91CF911F915C
:100DD0000F91FF90EF90DF90CF90BF90AF909F90DA
:100DE0008F907F906F905F904F903F902F900994DD
:100DF00026960FB6F894DEBF0FBECDBFDF91CF9120
:100E00001F910F91FF90EF90DF90CF90BF90AF9028
:100E10009F908F907F906F905F904F903F902F901A
:100E20000895089580E090E00895DC01FB0112969A
:100E30008C91129790E02481358182179307D1F429
:100E400091818081813A31F481E0913091F0933049
:100E500089F411C0813271F49B3021F482811F9694
:100E60008C9305C09A3031F4828150968C9381E046
:100E70000895089580E00895DC01FB0188E48083F3
:100E800089E4818384E482831D969C911D979F70E1
:100E90009F5B93831D968D919C911E9724E0969560
:100EA00087952A95E1F78F708F5B848385E008959D
:100EB000EF92FF920F931F93CF93DF93FB0120815B
:100EC000213869F52381223251F5DC0112962C91EB
:100ED00030E0448155814217530709F58C01FC012C
:100EE000C385D485E12CF12C209799F04C815D814C
:100EF0006A817B818E81811180E80E94CE048F3FC0
:100F0000FFEF9F0779F0E80EF91E0990D881C02DF8
:100F1000EBCF81E0D8011F968C93C70105C080E01C
:100F200090E002C08FEF9FEFDF91CF911F910F9163
:100F3000FF90EF900895CF93DF93CDB7DEB7699719
:100F40000FB6F894DEBF0FBECDBFFC01DB018C9164
:100F50008F5F8C93BE016F5F7F4F89E1DB011D9234
:100F60008A95E9F729E0298384E08A8391E09D83CB
:100F700083E08E832A8721E22B879C879D879F872A
:100F800022E2288B27E02B8B25E02C8B8E8B20E414
:100F900030E0388F2F8B998F82818B839585868562
:100FA000998B8A8B838180688D8B49E150E080E04A
:100FB0000E94CE0469960FB6F894DEBF0FBECDBF77
:100FC000DF91CF910895FC0182818F5BFB018083CB
:100FD00081E008950F931F93CF93DF931F92CDB7B6
:100FE000DEB78C01FC018485958597FF0EC0CE018C
:100FF00001960E94CD12019719F4298130E002C0B8
:101000002FEF3FEFF80135872487F8018485958518
:101010000F90DF91CF911F910F910895CF93DF93A0
:101020001F92CDB7DEB7FC018485958597FD05C07D
:101030002FEF3FEF358724870BC0CE0101960E942A
:10104000CD12019719F4898190E002C08FEF9FEFD4
:101050000F90DF91CF9108951F920F920FB60F92CC
:1010600011248F939F938091E1009091E100937FF1
:101070009093E10083FF0FC01092E90091E09093FC
:10108000EB001092EC0092E39093ED0010924C066E
:1010900098E09093F00082FF20C093E09093E900E5
:1010A0009091F200992319F09AE39093E8009091BF
:1010B0008001992339F090918001915090938001A3
:1010C000992389F190914B06992339F090914B0621
:1010D000915090934B06992341F184FF10C0809169
:1010E000E2008E7E81608093E2008091E1008F7E3D
:1010F0008093E100809182018E7E806111C080FF2B
:1011000016C08091E2008E7E80618093E200809123
:10111000E1008E7E8093E100809182018E7E81606D
:101120008093820104C05D9ACDCF289AD6CF9F913B
:101130008F910F900FBE0F901F9018951F920F92D6
:101140000FB60F921124CF92DF92EF92FF920F937E
:101150001F932F933F934F935F936F937F938F933F
:101160009F93AF93BF93EF93FF93CF93DF93CDB74D
:10117000DEB76C97DEBFCDBF1092E9008091E8002A
:1011800083FFEDC168E0CE0145960E94060582EF1F
:101190008093E8008D8987FF05C09091E80090FF5B
:1011A000FCCF03C09EEF9093E800982F907609F053
:1011B000C6C09E892F89188D91110CC0803829F4E2
:1011C000809183018093F10002C01092F10010928F
:1011D000F10048C1422F50E0512B913051F4811160
:1011E00041C14130510509F03DC1809183018D7F9E
:1011F0000BC0933061F4811135C14130510509F0C4
:1012000031C1809183018260809383012BC195302D
:1012100041F48091E80080FFFCCF20682093E30038
:1012200021C1963009F05FC0EB8CFC8C1092E90074
:1012300010927F0110927E01123091F510927D0183
:1012400010927C010E94520599E0BE016F5F7F4FB2
:10125000DB01E92F1D92EA95E9F799831A8391E062
:101260009E8390EA98879AEF998720917E0130912A
:101270007F01275F3F4F3C832B838D831092E900D2
:1012800010927F0110927E01F0927D01E0927C012C
:1012900049E050E080E00E94CE040E945205E2C086
:1012A000F0927D01E0927C010E943E05DC011296E5
:1012B000ED90FC901397E114F10409F4C0C0D7013C
:1012C000ED91FC910480F581E02DBE016B5E7F4FB6
:1012D000C7010995009719F00CF0C4C0C7C0F70109
:1012E000E084F184E8CF973009F4C0C0983021F44D
:1012F00081E08093F100B6C0993009F0B3C08370EB
:1013000009F0B4C0E1E0F1E081E021E036E3908152
:10131000992361F08093E9002093EB0091919093E1
:10132000EC003093ED008F5F873089F78EE7809374
:10133000EA001092EA008F8980934C0693C08B8D4F
:101340009C8D1092E90010927F0110927E01909383
:101350007D0180937C01898D811156C08E899D8984
:10136000913A59F4813209F081C047E050E06BE0D6
:1013700071E080E00E94CE0475C0913209F076C021
:10138000833289F4888D90E0982F88272F89822BCB
:10139000A0E0B0E08093070190930801A0930901B9
:1013A000B0930A015FC0803269F48091E80082FF47
:1013B000FCCF67E08BE091E00E9406058BEF809305
:1013C000E80006C0823209F04DC08F898093120177
:1013D00080918101882319F0EEEFFAE002C0E0E08D
:1013E000F8E080910B0190910C01A0910D01B0915A
:1013F0000E01803B9440A105B10509F07BC08091AE
:10140000120180FF93C076C00E943E05DC01129657
:101410000D911C9113970115110541F1D801ED9122
:10142000FC910190F081E02DBE016B5E7F4FC80101
:101430000995811117C0F80100851185ECCF113095
:1014400009F44EC0133091F48F89882309F445C004
:10145000823081F440E867E08BE397E00E949104DA
:10146000882321F08EEF8093E80079C081E2809399
:10147000EB0075C0813029F440E86BE08FE297E023
:10148000EDCF833099F70E943E05DC011296ED9076
:10149000FC9013978E010F5F1F4F6801E114F10458
:1014A00079F0D701ED91FC910680F781E02DB8012C
:1014B000C7010995080F111DF701E084F184EECFF3
:1014C000D8011C92F60101900020E9F73197BF0185
:1014D0006C197D0940E0C601C1CF69E177E002C027
:1014E0006DE177E06115710509F2FB01449150E06F
:1014F00080E840CF0FB6F894A8958091600088618D
:1015000080936000109260000FBEA895EE3F2AE025
:10151000F20739F08091FE0A9091FF0A918380834F
:10152000A1CF1092FF0A1092FE0A9CCFEE3F8AE0F4
:10153000F80731F0808191819093FF0A8093FE0A31
:1015400087E797E7918380839BE088E10FB6F89463
:10155000A895809360000FBE9093600083CF6C9637
:101560000FB6F894DEBF0FBECDBFDF91CF91FF91D4
:10157000EF91BF91AF919F918F917F916F915F910B
:101580004F913F912F911F910F91FF90EF90DF901E
:10159000CF900F900FBE0F901F901895362F90E0B0
:1015A000FC01E854F94F4491FC01EF5DF74F2491A1
:1015B000FC01E25BF74F8491882309F451C0442376
:1015C000E1F150E0FA013197EF30F105B0F5EA5A58
:1015D000FF4F0C94B618909180009F7707C09091B0
:1015E00080009F7D03C090918000977F9093800042
:1015F00024C094B59F7702C094B59F7D94BD1DC053
:10160000909190009F7707C0909190009F7D03C0BC
:1016100090919000977F909390000FC09091C000A0
:101620009F7703C09091C0009F7D9093C00005C03C
:101630009091C200977F9093C200E82FF0E0EE0FE8
:10164000FF1FE05CF74FA591B4918FB7F894EC9130
:10165000311103C020952E2301C02E2B2C938FBF58
:101660000895CF93DF9390E0FC01EF5DF74F249155
:10167000FC01E25BF74F8491882361F190E0880FD1
:10168000991FFC01ED50F84FC591D491FC01E05C2D
:10169000F74FA591B491611109C09FB7F894888163
:1016A000209582238883EC912E230BC0623061F455
:1016B0009FB7F8943881822F809583238883EC919B
:1016C0002E2B2C939FBF06C08FB7F894E8812E2B4A
:1016D00028838FBFDF91CF9108951F93CF93DF931E
:1016E000182FEB0161E00E94310B209711F460E0AC
:1016F00004C0CF3FD10539F461E0812FDF91CF9154
:101700001F910C94CE0AE12FF0E0E854F94FE491D8
:101710004E2F50E0FA013197EF30F10508F06CC020
:10172000EB59FF4F0C94B61884B5806884BDC7BDD3
:1017300068C084B5806284BDC8BD63C080918000EC
:10174000806880938000D0938900C093880059C03E
:1017500080918000806280938000D0938B00C09342
:101760008A004FC080918000886080938000D09371
:101770008D00C0938C0045C080919000806880935C
:101780009000D0939900C09398003BC08091900046
:10179000806280939000D0939B00C0939A0031C0E8
:1017A00080919000886080939000D0939D00C093BA
:1017B0009C0027C08091C00080688093C000809109
:1017C000C0008F7B8093C000C093CF001AC080916F
:1017D000C00080628093C000C093D00012C080918E
:1017E000C20088608093C2008091C2008B7F80938A
:1017F000C200C093D20005C0C038D1050CF07CCF28
:1018000076CFDF91CF911F9108958F929F92AF92E3
:10181000BF92CF92DF92EF92FF926B017C010E9408
:10182000C4054B015C01C114D104E104F104F1F0E1
:101830000E94C405DC01CB0188199909AA09BB09DA
:10184000883E9340A105B10570F321E0C21AD1088A
:10185000E108F10888EE880E83E0981EA11CB11CF7
:10186000C114D104E104F10419F7DDCFFF90EF902A
:10187000DF90CF90BF90AF909F908F9008957F9210
:101880008F929F92AF92BF92CF92DF92EF92FF9290
:101890000F931F93CF93DF93C82E8B017A01809112
:1018A0004C06811103C08FEF9FEF75C080918201BC
:1018B00080FF05C08091E00082608093E000CE2D23
:1018C000DF2DD12C8AEF882E8C2D8770B82E8C2D91
:1018D0008072A82E8C2D8074982E9AE3792E2097F2
:1018E00009F452C08C2D0E94F504282F81110AC0E2
:1018F0008A948820C1F261E070E080E090E00E946C
:10190000050CEDCF90E0C817D9070CF42C2F3FB78A
:10191000F894B092E9008091E80085FF33C0822FEF
:1019200090E0C81BD90BAA2029F02150A8F01092F2
:10193000F100FBCFF801C7FE07C0215058F04491D9
:101940004093F1003196F9CF215020F0419140931E
:10195000F100FACF080F191FDD2019F07092E8008E
:101960000AC08091E80085FD08C07092E800DD247F
:10197000D394209739F0D12C05C0209719F49110F9
:101980007092E8003FBFABCFD110ACCF5D9884E63A
:1019900080938001C701DF91CF911F910F91FF903C
:1019A000EF90DF90CF90BF90AF909F908F907F90FF
:1019B0000895CF93DF93EC0180911201882331F0D9
:1019C00083E00E943F0C1816190634F081E090E085
:1019D0009B838A8380E090E0DF91CF9108951F92EE
:1019E0000F920FB60F9211242F933F938F939F93D3
:1019F000AF93BF938091850190918601A09187015B
:101A0000B091880130916B0123E0230F2D3720F432
:101A10000196A11DB11D05C026E8230F0296A11D48
:101A2000B11D20936B018093850190938601A09353
:101A30008701B093880180916C0190916D01A09114
:101A40006E01B0916F010196A11DB11D80936C01D3
:101A500090936D01A0936E01B0936F01BF91AF9110
:101A60009F918F913F912F910F900FBE0F901F90DC
:101A700018958FB12CB193B130E02095309520743A
:101A80003327A90123E0559547952A95E1F7292F9A
:101A900030E0209530952071332735952795359581
:101AA0002795242B8095807F822B0895CF92DF92FB
:101AB000EF92FF920F931F93CF93E82FF0E0E3593B
:101AC000F74FC491E62FF0E0603330F4E857F94F58
:101AD000E4910E2F10E006C0EE0FFF1FE857FA4FFB
:101AE000059114916801E12CF12C60E074E284EF1F
:101AF00090E0A70196010E944718BA01A901415040
:101B00005109610971094115510581E068077105A5
:101B100080F060E970ED83E090E0A70196010E94FB
:101B20004718BA01A901415051096109710983E0BF
:101B300001C081E0C130C9F0C33031F5909191000E
:101B4000987F892B8093910050939900409398003F
:101B500010936A010093690181E08093680180918C
:101B600071008260809371000FC090918100987F16
:101B7000892B809381005093890040938800809145
:101B80006F00826080936F00CF911F910F91FF9043
:101B9000EF90DF90CF9008951F920F920FB60F92A3
:101BA00011242F933F938F939F93AF93BF93EF9302
:101BB000FF9380916101882309F44DC080915D01FC
:101BC00090915E01A0915F01B0916001892B8A2BF9
:101BD0008B2B51F180915006E0915106F091520605
:101BE00090818927808380915D0190915E01A09111
:101BF0005F01B0916001181619061A061B06A4F5BC
:101C000080915D0190915E01A0915F01B0916001B2
:101C10000197A109B10980935D0190935E01A093A2
:101C20005F01B093600120C01092610180916F004C
:101C30008D7F80936F0090915006E0915106F09156
:101C400052068081282F30E0892F90E08095909572
:101C50008223932308C080915006E0915106F091B1
:101C60005206908189278083FF91EF91BF91AF91B8
:101C70009F918F913F912F910F900FBE0F901F90CA
:101C80001895E82FF0E0E359F74FE491E13019F0AF
:101C9000E33069F0089580916F008D7F80936F002D
:101CA00090915006E0915106F091520608C01092B2
:101CB000680190914D06E0914E06F0914F068081AB
:101CC000282F30E0892F90E08095909582239323F0
:101CD000808308951F920F920FB60F9211242F93B5
:101CE0003F934F935F936F937F938F939F93AF93A4
:101CF000BF93EF93FF9380916801882349F080910F
:101D00004D06E0914E06F0914F0690818927808321
:101D100080918401882309F493C08091640190919B
:101D20006501A0916601B0916701892B8A2B8B2BED
:101D300009F486C08091640190916501A0916601CB
:101D4000B09167010197A109B10980936401909353
:101D50006501A0936601B0936701892B8A2B8B2BB9
:101D600009F06EC0E0916201F0916301BF016F5F05
:101D70007F4F70936301609362014491942F907F31
:101D8000842F8F70903819F40E94410EEBCF903958
:101D900081F43296F0936301E0936201FB01649158
:101DA000909153068917F0F667FDDCCF0E94560D1F
:101DB000D9CF903E29F41092630110926201D2CFE4
:101DC000903F19F4109284013BC097FDCBCF32961F
:101DD000F0936301E0936201FB01249130E0342B26
:101DE000A0916901B0916A010E9493186C507E4FD6
:101DF0008F4F9F4F28EE33E040E050E00E94711873
:101E0000209364013093650140936601509367010C
:101E10008091640190916501A0916601B091670184
:101E2000892B8A2B8B2B61F481E090E0A0E0B0E05D
:101E30008093640190936501A0936601B09367015C
:101E4000FF91EF91BF91AF919F918F917F916F9192
:101E50005F914F913F912F910F900FBE0F901F9068
:101E600018958091550181116BC081E080934801E4
:101E7000809349012EE431E030934B0120934A01D5
:101E800010924D0110924C012DE131E0309345014B
:101E9000209344011092500110924F011092520170
:101EA00010925101809353018093540181EC8093EF
:101EB0004E010E943E05FC0121818091480190E085
:101EC000820F911D089724F081E08093550138C05E
:101ED000A281B381109729F484E491E093838283F3
:101EE0000EC018968D919C911997009711F0DC0106
:101EF000F8CF84E491E019969C938E931897808193
:101F000080934601818180934701908180914901AE
:101F1000890F808380E0909148018917A8F6A091ED
:101F20004A01B0914B01A80FB11D9C91A181B0E075
:101F3000A050BF4F9C9391819F5F91838F5FEBCFA8
:101F400084E491E00895CF92DF92EF92FF920F9395
:101F50001F93CF93DF93D901E801421753071CF079
:101F6000FA01690102C06A01F901882309F43FC03E
:101F70009C2D8D2DC616D70614F4962F872F292F4A
:101F8000382FE217F3070CF49F01A417B50734F4B8
:101F9000CF01821B930B9C012C0D3D1D0D2C000CC1
:101FA000EE08FF08C901330FAA0BBB0B9C01AD0162
:101FB0002C193D094E095F09AEEFBFEF0E9466186C
:101FC0008F01FF0F220B330BA90198012C193D093A
:101FD0004E095F090E944718DA01C9018F5F9F47C8
:101FE000A109B1098883998382E090E002C080E072
:101FF00090E0DF91CF911F910F91FF90EF90DF90D4
:10200000CF900895CF92DF92EF92FF920F931F939C
:10201000CF93DF93D901E801421753071CF0FA016F
:10202000690102C06A01F901882309F43FC09C2DAF
:102030008D2DC616D70614F4962F872F292F382FEB
:10204000E217F3070CF49F01A417B50734F4CF018E
:10205000821B930B9C012C0D3D1D0D2C000CEE08DA
:10206000FF08C901330FAA0BBB0B9C01AD012C1952
:102070003D094E095F09AEEFBFEF0E9466188F0160
:10208000FF0F220B330BA90198012C193D094E09B2
:102090005F090E944718DA01C9018F5F9F47A109B4
:1020A000B1098883998382E090E002C080E090E0EB
:1020B000DF91CF911F910F91FF90EF90DF90CF9024
:1020C00008957F928F929F92AF92BF92CF92DF92AC
:1020D000EF92FF920F931F93CF93DF93CDB7DEB7AD
:1020E000ADB6BEB6809130022DB73EB7281B310980
:1020F0000FB6F8943EBF0FBE2DBF8DB79EB70196A9
:102100006C01E090FF01F12C8091FB019091FC01AA
:10211000D601FC019F01281B390B2E153F051CF42D
:1021200021912D93F7CF80910002882371F1809146
:10213000F7019091F80197FD0AC068E671E00E94EE
:10214000A2186DE270E00E94A218262F01C028E0BC
:102150008091F9019091FA0197FD0AC068E671E05B
:102160000E94A2186DE270E00E94A218962F01C092
:1021700098E0F601EE0DFF1D30E1939FC0011124A0
:10218000822B8083C70101967C0186010E0D1F1DE5
:102190002091050230910602409103025091040201
:1021A0006091E1017091E2018091010281700E94D1
:1021B0000210E80EF91E86010E0D1F1D2091090266
:1021C00030910A0240910702509108026091E301A8
:1021D0007091E40180910102869581700E94021045
:1021E000E80EF91E86010E0D1F1D20910D02309183
:1021F0000E0240910B0250910C026091E50170912A
:10220000E6018091010282FB882780F90E9402107A
:10221000E80EF91E86010E0D1F1D2091110230914E
:10222000120240910F02509110026091E7017091EB
:10223000E8018091010283FB882780F90E94021047
:10224000E80EF91E86010E0D1F1D2091150230911A
:10225000160240911302509114026091E9017091AD
:10226000EA0180910102829581700E940210E80EBD
:10227000F91E86010E0D1F1D2091190230911A02C0
:1022800040911702509118026091EB017091EC019E
:102290008091010285FB882780F90E940210E80ED8
:1022A000F91E86010E0D1F1D20911D0230911E0288
:1022B00040911B0250911C026091EF017091F0015E
:1022C0008091020281700E94A30FE80EF91E860120
:1022D0000E0D1F1D209121023091220240911F02FC
:1022E000509120026091ED017091EE018091020207
:1022F000869581700E94A30FE80EF91E86010E0DCF
:102300001F1D2091250230912602409123025091F9
:1023100024026091F1017091F2018091020282FB2E
:10232000882780F90E94A30FE80EF91E86010E0D82
:102330001F1D2091290230912A02409127025091BD
:1023400028026091F3017091F4018091020283FBF5
:10235000882780F90E94A30F8E0D9F1D8601080F0C
:10236000191F20912D0230912E0240912B02509185
:102370002C026091F5017091F60180910202829524
:1023800081700E94A30F1091300270902F020E9462
:10239000310F7C01412F50E04A019FEF891A990AC1
:1023A000EDB7FEB7E819F9090FB6F894FEBF0FBEF6
:1023B000EDBF0DB71EB70F5F1F4F7182B601C80189
:1023C00001960E94FD19F7018381A401B801806480
:1023D0000E943F0C0FB6F894BEBE0FBEADBEDF919B
:1023E000CF911F910F91FF90EF90DF90CF90BF9012
:1023F000AF909F908F907F9008959091FE018917E4
:10240000F8F4982F969596959695E091FB01F091AA
:10241000FC01E90FF11D282F277081E090E0A0E07A
:10242000B0E004C0880F991FAA1FBB1F2A95D2F7DE
:102430002081822B80838091FD0181110C94611099
:1024400008959091FE01891700F5982F969596951D
:102450009695E091FB01F091FC01E90FF11D282F09
:10246000277081E090E0A0E0B0E004C0880F991FE1
:10247000AA1FBB1F2A95D2F780959081892380835C
:102480008091FD0181110C946110089520E085E494
:1024900092E0B22FB111BFEFFC010024B193B193D0
:1024A000B193B1930394D1F70895CF93DF939091B3
:1024B0005306923009F46EC0C82F292F30E0F9017D
:1024C000E359F74FD491F901EC5AF94F80839F5F9C
:1024D0009093530661E00E94310BD13019F0D33054
:1024E00039F158C0109280001092810080918100D3
:1024F0008860809381008091810081608093810059
:102500008C2F90E0FC01E25BF74FE491F0E0EE0FDE
:10251000FF1FE05CF74F25913491309352062093D2
:102520005106FC01EF5DF74F84918093500632C055
:102530001092900010929100809191008860809399
:102540009100809191008160809391008C2F90E0A8
:10255000FC01E25BF74FE491F0E0EE0FFF1FE05C5F
:10256000F74F2591349130934F0620934E06FC018E
:10257000EF5DF74F849180934D0680915306882339
:1025800021F06CE380E00E94560D80E0DF91CF9156
:102590000C94410EDF91CF910895FC0180914C067F
:1025A000811103C08FEF9FEF08959FB7F89482E0E9
:1025B0008093E9002091F20030E01216130614F423
:1025C00021E030E02115310559F0289884E6809308
:1025D0004B068091F10080838091F200882319F0EE
:1025E0009FBFC90108958BE68093E800F9CFCF9390
:1025F000DF9300D000D000D0CDB7DEB7789484B59B
:10260000826084BD84B5816084BD85B5826085BDEE
:1026100085B5816085BD80916E00816080936E007C
:10262000109281008091810082608093810080916E
:10263000810081608093810080918000816080931F
:102640008000809191008260809391008091910040
:1026500081608093910080919000816080939000D0
:102660008091C10084608093C1008091C10082602C
:102670008093C1008091C10081608093C1008091EE
:10268000C30081608093C3008091C000826080930A
:10269000C0008091C20081608093C20080917A0066
:1026A000846080937A0080917A00826080937A00BF
:1026B00080917A00816080937A0080917A008068AE
:1026C00080937A0010924C0610928301109282013E
:1026D0008091D70081608093D70080EA8093D800F2
:1026E00089B5806189BD89B5826089BD09B400FE64
:1026F000FDCF61E070E080E090E00E94050C8091E9
:10270000D8008F7C80618093D8008091E000807F2A
:102710008093E0008091E1008E7E8093E1008DE067
:102720008093E200559A209AEEEFFFE7859194910D
:102730008B3F9C4D19F481E0809381011FB7F89481
:1027400080918A01811127C0EFE5F8E08491E2E3EE
:10275000F8E09491E82FF0E0EE0FFF1FED50F84FF6
:10276000A591B491EC91E92321F461E081E10E940B
:10277000CE0A61E081E10E94310B8CB580618CBD95
:102780008CB580648CBD61E08FE00E94310B61E00C
:1027900080E10E94310B80918A018F5F80938A01D2
:1027A0001FBF0EE018E0F8018491319664918823F0
:1027B00029F00E5F1F4F0E94310BF5CF61E086E0DC
:1027C0000E94CE0A61E070E080E090E00E94050C7B
:1027D00060E086E00E94CE0A6AE070E080E090E06F
:1027E0000E94050C61E086E00E94CE0AEAE5F8E06E
:1027F000E491F0E0EE0FFF1FE05CF74F85919491BC
:102800009093900180938F01EDE2F8E0E491E093E2
:102810008E01E2E5F8E0E491F0E0EE0FFF1FE05CEE
:10282000F74F8591949190938D0180938C01E5E20F
:10283000F8E0E491E0938B018CB58C7F8CBD8DB575
:1028400081608DBDE0918F01F09190019081809128
:102850008E01982B9083A0918C01B0918D012C91C9
:1028600090918B01909592239C93908180958923E0
:102870008083E1E0F8E028E0EE30F20749F084914F
:102880008EBD00000DB407FEFDCF8EB53196F3CF9F
:10289000E0918C01F0918D01908180918B01892BC9
:1028A0008083E0918F01F0919001908180918E0161
:1028B0008095892380838091640081608093640087
:1028C00080916400826080936400809164008068DD
:1028D00080936400809164008064809364008091A0
:1028E00065008160809365000E94390D87FF1AC0E2
:1028F00080E094E01EBC00000DB407FEFDCF2EB5B5
:102900000197C1F760E070E08AE00E946D0B60E023
:1029100070E08BE00E946D0B60E070E089E00E9447
:102920006D0BFFCF4EEE5FEF5C834B8368E1462E6D
:1029300088248A94912C08E010E0842D5B81851B0B
:10294000B401681B71098AE00E946D0B6FEF70E0A3
:102950008BE00E946D0B6FEF70E089E00E946D0BC1
:102960000E9446125B8060EF561634F48091450257
:102970008EBDE6E4F2E068C02B813C8137FF03C0E6
:10298000319521953109277033278B819C8197FDE3
:10299000079653E0959587955A95E1F72B803C80F3
:1029A00037FE05C001973801621A730A93017C0152
:1029B000F694FE2CEE24F794E79440E050E05801A2
:1029C000A21AB30ABE82AD82B70160587F4F5B0185
:1029D0008F3F7FEF970744F40196485A5F4F750188
:1029E000403B510589F7C2CFD701A752BD4F60E0E8
:1029F00070E08F3FEFEF9E0709F44CC1FB01E40F3D
:102A0000F51FED5BF84FE4916D01CA18DB08CE0CA1
:102A1000DF1C6E2E712C1301022E02C0220C331CFF
:102A20000A94E2F73A822982F601308069807A803E
:102A30006328130120822EC10DB407FEFDCF8EBD89
:102A400026E0E534F20711F08191F6CF0DB407FED0
:102A5000FDCF6BE170E080E090E00E94050C40EF5C
:102A6000541206C06AEF70E080E090E00E94050C0E
:102A70004B815C814F5F5F4F5C834B8349315105D4
:102A800009F05BCF6EEE72E080E090E00E94050CF2
:102A90006FEF70E08AE00E946D0B6FEF70E08BE0EB
:102AA0000E946D0B6FEF70E089E00E946D0B85E076
:102AB0000E9455128DE00E9455121092840182E00E
:102AC00090E00E943F18882369F080916400877F1E
:102AD0008093640080916500877F8093650081E02A
:102AE000809389010E94461281E08093FD010E943B
:102AF00061108FEF9FEF909304028093030221E017
:102B000030E03093060220930502909308028093F0
:102B1000070230930A022093090290939E0180934A
:102B20009D0180E0E82E80E0F82EDD24D394662419
:102B30006394712C0FEF1FEF8FB7F89440918501CC
:102B40005091860160918701709188018FBF8091BB
:102B50004302882389F080913B02942F981B909325
:102B60004402809138029091390201969093390283
:102B7000809338021092430280913F02909140026C
:102B8000A0914102B0914202481759076A077B079A
:102B90007CF4841B823008F476C083B7817F83BFC6
:102BA00083B7816083BF889583B78E7F83BF6BC0F7
:102BB00080913A024A015B01880E911CA11CB11C54
:102BC00080923F0290924002A0924102B092420253
:102BD00040933B0250933C0260933D0270933E024F
:102BE000D09243020E94390D87FF0BC01093E4017D
:102BF0000093E3018091FD018823A1F00E94611000
:102C000011C00E94390D9091FD0184FF05C07092A2
:102C1000E4016092E30104C01092E4011092E30128
:102C20009111ECCF0E94390D85FF0BC01093E2018A
:102C30000093E1018091FD018823A1F00E946110C1
:102C400011C00E94390D9091FD0186FF05C0709260
:102C5000E2016092E10104C01092E2011092E101F0
:102C60009111ECCF0E94390D83FF2FC00E94390DC6
:102C700082FF2BC083E00E94FD1180E00E942112A0
:102C800081E00E942112E114F10409F455CF0E9461
:102C9000000052CF2115310581F0FB01E40FF51F33
:102CA000ED5BF84FE491F0E00D8002C0F595E795FB
:102CB0000A94E2F7DC90ED29EC936F5F7F4F119659
:102CC0006835710509F095CE87CE83E00E94211208
:102CD0000E94390D83FF04C080E00E94FD1103C0F3
:102CE00080E00E9421120E94390D82FFC9CF81E04D
:102CF0000E94FD11C8CFEF92FF920F931F93CF93C5
:102D0000DF93CDB7DEB7C659D1090FB6F894DEBF51
:102D10000FBECDBF109294011092930188EE93E004
:102D2000A0E0B0E08093950190939601A093970165
:102D3000B093980189E291E0909392018093910180
:102D40008FEF9FEF90939E0180939D01109234022C
:102D5000109233028BE391E0909332028093310220
:102D60008CE380933702A0E1A0933A0210923902DB
:102D70001092380210923F021092400210924102CB
:102D8000109242021092430210924606109245069B
:102D9000109248061092470621E0209349061092AF
:102DA000FC011092FB011092FF011092040210929C
:102DB00003028FEF93E09093060280930502109236
:102DC00008021092070290930A028093090210925F
:102DD0000C0210920B0290930E0280930D0210923F
:102DE000100210920F02909312028093110210921F
:102DF00014021092130290931602809315021092FF
:102E000018021092170290931A02809319021092DE
:102E10001C0210921B0290931E0280931D021092BE
:102E2000200210921F02909322028093210210929E
:102E3000240210922302909326028093250210927E
:102E400028021092270290932A028093290210925E
:102E50002C0210922B0290932E0280932D0233E0CD
:102E600030932F0244E04093FE0110920002309311
:102E700001021092020295E099832A8389E08B83F4
:102E80009C83F1EAFD832E8355E85F833887998719
:102E90008A8759E15B872C8759E25D874E8755E128
:102EA0005F87188A55E2598B2A8BE5E7EB8B2C8BD1
:102EB00075E97D8B4E8B55E55F8B188E55E6598FE6
:102EC0001A8E61E86B8F52E05C8FED8F2E8F7F8FB3
:102ED00048A369A33AA39BA32CA38DA32EA396E199
:102EE0009FA328A790E899A796E29AA79FEF9BA790
:102EF0009FE79CA7EDA7AEA77FA758ABF9AB1AAA8F
:102F00008BAB90E39CAB8DAB81E38EAB6FAB58AFDB
:102F100080EC89AF8AAF8AE390E00E94D0187C01F0
:102F20008AE3FE013196D70101900D928A95E1F76F
:102F300087E090E00E94D0188C01DC0111961C9271
:102F40001E921396FC92EE9212978AE390E01596E9
:102F50009C938E93149716961C920E94310FFC013D
:102F6000A385B485109719F41487038709C08D9140
:102F70009C911197009711F0DC01F9CF0D931C93F0
:102F800025853685D80114968D919C911597820FD1
:102F9000931F968785879091FE01892F8695869548
:102FA0008695977009F08F5F8093FF011091FF0164
:102FB000812F90E00E94D0189093FC018093FB0138
:102FC0001C5F81E090910002911101C080E0810FAF
:102FD000809330021092E2011092E1011092E4011C
:102FE0001092E3011092E6011092E5011092E801BF
:102FF0001092E7011092EA011092E9011092EC019F
:103000001092EB011092EE011092ED011092F0017E
:103010001092EF011092F2011092F1011092F4015E
:103020001092F3011092F6011092F5018FEF9FEFCD
:103030009093F8018093F7019093FA018093F9013E
:1030400080E090E02091FF0130E0821793074CF47C
:10305000E091FB01F091FC01E80FF91F108201964D
:10306000F1CFCA56DF4F0FB6F894DEBF0FBECDBF0B
:10307000DF91CF911F910F91FF90EF900895F999F3
:10308000FECF92BD81BDF89A992780B50895052E8F
:1030900097FB1EF400940E945E1857FD07D00E9413
:1030A000711807FC03D04EF40C945E1850954095AF
:1030B000309521953F4F4F4F5F4F089590958095E4
:1030C000709561957F4F8F4F9F4F08950E94931881
:1030D000A59F900DB49F900DA49F800D911D11246C
:1030E0000895A1E21A2EAA1BBB1BFD010DC0AA1F49
:1030F000BB1FEE1FFF1FA217B307E407F50720F061
:10310000A21BB30BE40BF50B661F771F881F991FDB
:103110001A9469F760957095809590959B01AC0124
:10312000BD01CF010895A29FB001B39FC001A39F2D
:10313000700D811D1124911DB29F700D811D1124F0
:10314000911D089597FB072E16F4009407D077FD84
:1031500009D00E94BC1807FC05D03EF490958195DB
:103160009F4F0895709561957F4F0895EE0FFF1F53
:103170000590F491E02D0994AA1BBB1B51E107C0F7
:10318000AA1FBB1FA617B70710F0A61BB70B881FF7
:10319000991F5A95A9F780959095BC01CD01089586
:1031A000CF93DF938230910510F482E090E0E091BC
:1031B0005806F091590620E030E0C0E0D0E03097AA
:1031C00011F14081518148175907C0F0481759073C
:1031D00061F482819381209719F09B838A832BC0AD
:1031E000909359068093580626C02115310519F091
:1031F0004217530718F49A01BE01DF01EF01028064
:10320000F381E02DDCCF2115310509F1281B390BA5
:103210002430310590F412968D919C91139761158D
:10322000710521F0FB019383828304C090935906BA
:1032300080935806FD01329644C0FD01E20FF31F52
:1032400081939193225031092D933C933AC0209160
:10325000560630915706232B41F4209115013091E9
:103260001601309357062093560620911301309192
:1032700014012115310541F42DB73EB740911701D6
:1032800050911801241B350BE0915606F09157061A
:10329000E217F307A0F42E1B3F0B2817390778F02D
:1032A000AC014E5F5F4F2417350748F04E0F5F1F8C
:1032B00050935706409356068193919302C0E0E0E5
:1032C000F0E0CF01DF91CF9108950F931F93CF933B
:1032D000DF93009709F48CC0FC01329713821282AD
:1032E00000915806109159060115110581F42081AD
:1032F0003181820F931F209156063091570628176F
:10330000390779F5F0935706E093560671C0D80156
:1033100040E050E0AE17BF0750F412962D913C915B
:103320001397AD012115310509F1D901F3CF9D01A5
:10333000DA013383228360817181860F971F8217A0
:10334000930769F4EC0128813981260F371F2E5F1E
:103350003F4F318320838A819B8193838283452BD6
:1033600029F4F0935906E093580642C01396FC9353
:10337000EE931297ED01499159919E01240F351F4B
:10338000E217F30771F480819181840F951F0296F3
:1033900011969C938E938281938113969C938E9326
:1033A0001297E0E0F0E0D80112968D919C9113976E
:1033B000009719F0F8018C01F6CF8D919C9198013E
:1033C0002E5F3F4F820F931F209156063091570674
:1033D0002817390769F4309729F41092590610928A
:1033E000580602C0138212821093570600935606A5
:1033F000DF91CF911F910F910895FB01DC0102C075
:1034000001900D9241505040D8F70895F894FFCFA5
:1034100000C18081000000FFFFFFFF00E10000000D
:1034200000000000005A0680000000000015079B05
:103430000758073C07000000008405D90CA5059A31
:1034400005AA050E08EA0700000000E905130512A9
:043450000711070059
:00000001FF
